:040000008A11FD2F35
:100F7A008130831203139F00831603139F01831288
:100F8A0003131F140800F201F301831203139F14C1
:100F9A009F18CD2F1E08F300831603131E08F200B4
:100FAA007308F1007208F000080071308316031309
:100FBA008F00071005148A11BD278A11E72F8312A3
:100FCA00031307108A11C8278A117108F5007008DF
:100FDA00F4007508803AFF0083307F02031DF72F63
:100FEA0052307402031CE42F831203130714E72FF1
:060FFA0083018A11DA2FC9
:02400E00D7FFDA
:00000001FF
